:020000040800F2
:1000000010040120DD010008E5010008E7010008F7
:10001000E9010008EB010008ED0100080000000004
:10002000000000000000000000000000EF010008D8
:10003000F101000800000000F30100083902000887
:10004000F7010008F7010008F7010008F7010008B0
:10005000F7010008F7010008F7010008F7010008A0
:10006000F7010008F7010008F7010008F701000890
:10007000F7010008F7010008F7010008F701000880
:10008000F7010008F701000825020008F701000841
:10009000F7010008F7010008F7010008F701000860
:1000A000F7010008F7010008F7010008F701000850
:1000B000F7010008F7010008F7010008F701000840
:1000C000F7010008F7010008F7010008F701000830
:1000D000F7010008F7010008F7010008F701000820
:1000E000F7010008F7010008F7010008F701000810
:1000F000F7010008F7010008F7010008F701000800
:10010000F7010008F7010008F7010008F7010008EF
:10011000F7010008F7010008F7010008F7010008DF
:10012000F7010008F7010008F7010008F7010008CF
:10013000F7010008F7010008F7010008F7010008BF
:10014000F7010008F7010008F7010008F7010008AF
:10015000F7010008F7010008F7010008F70100089F
:10016000F7010008F7010008F7010008F70100088F
:10017000F7010008F7010008F7010008000000007F
:10018000F7010008F7010008F7010008F70100086F
:10019000F7010008F7010008F7010008F70100085F
:1001A000F7010008F7010008F7010008F70100084F
:1001B000F7010008F7010008F7010008F70100083F
:1001C000F7010008F7010008DFF80CD000F018F87C
:1001D00000480047F103000810040120064880474A
:1001E00006480047FEE7FEE7FEE7FEE7FEE7FEE71C
:1001F000FEE7FEE7FEE7FEE701030008C90100088D
:10020000064C074D06E0E06840F0010394E8070063
:1002100098471034AC42F6D3FFF7DAFF7C050008AC
:100220009C0500080248006800B202490880704737
:100230004C2201400000012000B500F093F800BD01
:1002400070B500200022022300240221274D2D68D2
:1002500005F00C0020B1042806D0082834D107E0AE
:10026000234D244E356033E0234D224E35602FE080
:100270001E4D2D1F2D68C5F380541C4D2D1F2D685C
:1002800005F03F0154B11C4DB5FBF1F5174E361F7B
:100290003668C6F3881605FB06F209E0144DB5FB77
:1002A000F1F5124E361F3668C6F3881605FB06F2C6
:1002B0000E4D2D1F2D68C5F301456D1C6B00B2FB63
:1002C000F3F50C4E356003E0094D0A4E356000BF72
:1002D00000BF064D2D68C5F30315084E705D054D32
:1002E0002D68C540034E356070BD000008380240DF
:1002F0000024F4000800012040787D016405000816
:100300001448006840F47000124908601248006800
:1003100040F001001049086000200F4908310860D2
:100320000D4800680D4908400B4908600C48091D3C
:100330000860081F006820F48020091F0860002062
:1003400005490C3108604FF00060024980390860AF
:100350007047000088ED00E000380240FFFFF6FE25
:10036000103000240D48008840F6C41110FB01F045
:1003700040F6FF7190FBF1F000B2094908800120BE
:10038000084948610A2000E0401C0549B1F9001005
:100390008842F9DB002003494861704700000120D2
:1003A00004000120000002400748006840F080403F
:1003B0000649C1F8080200BF03480838006800F089
:1003C00002000128F8D070470822014000200140B7
:1003D00002E008C8121F08C1002AFAD1704770470E
:1003E000002001E001C1121F002AFBD1704700006C
:1003F0005148006840F023004F4908604F480068AA
:1004000040F001004D4908600846406848600846D1
:10041000806840F0010088600846C06840F0010034
:10042000C8604748006843F6C34108434449086030
:10043000081D0068091D0860081D006843F6C341D7
:1004400008433F4908310860081D006843F6C3416E
:1004500008433B490C3108603A48006840F0C0004E
:1004600038490860FFF7ECFE374800686422B0FBAB
:10047000F2F1481EB0F1807F00D31BE0481E4FF020
:10048000E022506150170F22002804DB13071C0ED6
:100490002E4B1C5406E013071D0E2D4B00F00F04CD
:1004A000241F1D5500BF00204FF0E022906107205F
:1004B000106100BF20481430006840F480601E497D
:1004C000143108602348006840F020002249C1F838
:1004D00004020846D0F8080240F48060C1F808021F
:1004E0000846D0F8080240F001001A49091D0860CA
:1004F00009201849303108601220002809DB00F07B
:100500001F02012191404209920002F1E022C2F84B
:10051000001100BF0EE0FFF747FF104800884FF4BE
:10052000B47110FB01F040F6FF7190FBF1F000B2E6
:100530000B490880EFE7000030380240000002401D
:1005400000040240001402400800012000E400E022
:1005500018ED00E0042201400020014000000120CD
:10056000020001200000000000000000010203045E
:100570000607080900000000010203049C050008AA
:10058000000001200C000000D0030008A8050008AE
:100590000C00012004040000E0030008000000003B
:0805A000640000000024F400D7
:04000005080001DD11
:00000001FF
